:100000000C944C000C946B000C946B000C946B00E3
:100010000C946B000C946B000C946B000C946B00B4
:100020000C946B000C946B000C946B000C946B00A4
:100030000C946B000C946B000C946B000C946B0094
:100040000C946B000C946B000C946B000C946B0084
:100050000C946B000C946B000C946B000C946B0074
:100060000C946B000C946B000C946B000C946B0064
:100070000C946B000C946B000C946B000C946B0054
:100080000C946B000C946B000C946B000C946B0044
:100090000C946B000C946B0011241FBECFEFD0E2C8
:1000A000DEBFCDBF14E0A0E0B1E0E4E9FEE000E097
:1000B0000BBF02C007900D92AA34B107D9F714E024
:1000C000AAE4B4E001C01D92A236B107E1F70E9494
:1000D00069040C9448070C9400001092D80081E841
:1000E0008093D70019BC86E189BD09B400FEFDCF1D
:1000F00080E38093D80080EB8093D80080E98093E0
:10010000D8008FE78093EA0081E008950E946D0097
:100110001092510400D080E091E0EDB7FEB79283D9
:1001200081830E9486040F900F9008951F93182FCB
:1001300000D026E131E0EDB7FEB7328321830E9483
:1001400086040F900F90112321F48091E0008B7FA3
:1001500005C0113029F48091E00084608093E000B4
:100160001093520481E0809351048091E0008E7FCF
:100170008093E00000D08AE291E0EDB7FEB7928371
:1001800081830E9486040F900F901F9108951F9302
:100190001091E9001092E9008091EA00816080935B
:1001A000EA001092EC0082E38093ED0089E28093F4
:1001B000EB008091EE0087FF1EC08091EA008E7FE9
:1001C0008093EA001093E90000D08BE391E0EDB753
:1001D000FEB7928381830E94860480E490E090932E
:1001E0004C0480934B0481E080934A041092E80011
:1001F0000F900F9010C000D087E591E0EDB7FEB7EB
:10020000928381830E94860410924A041093E9002D
:100210000F900F9080E01F9108958091E10083FF7F
:1002200019C000D08DE691E0EDB7FEB792838183CF
:100230000E9486048091E100877F8093E1008FE730
:100240008093EA0082E0809351040F900F900E9407
:10025000C700089581E008950F931F93CF93DF9314
:10026000C4E5D4E08091F100899384E0CC35D807CF
:10027000C9F700D081E891E0ADB7BEB712969C9364
:100280008E9311970E9486040F900F90289704E98F
:1002900011E0899100D000D0EDB7FEB73196ADB72F
:1002A000BEB712961C930E931197828313820E94FD
:1002B00086040F900F900F900F90B4E0CC35DB07C1
:1002C00041F7DF91CF911F910F910895FF920F9306
:1002D0001F93CF93DF93F090E9001092E90000D0D4
:1002E0008AE991E0EDB7FEB7928381830E9486048C
:1002F0000F900F90C0E0D0E004E911E025C0E0913C
:100300004D04F0914E04EC0FFD1F80818093F100AD
:1003100000D000D0ADB7BEB71196EDB7FEB71283CF
:100320000183E0914D04F0914E04EC0FFD1F80819C
:1003300012968C93129713961C920E948604219613
:100340000F900F900F900F9080914F049091500458
:10035000C817D907A0F28091E8008E7F8093E8004B
:10036000F092E90081E0DF91CF911F910F91FF9012
:1003700008952091E90081E08093E9009091EA00DE
:1003800092609093EA0091EC9093EC0092E090934D
:10039000ED008093EB0099E19093EB008093E800EF
:1003A0008091EE0087FF09C02093E9008091EA0068
:1003B0008D7F8093EA0081E008952093E90080E03A
:1003C000089580915404803809F07CC080915504D0
:1003D000863009F0F1C080915604882301F58091A0
:1003E00057048130E1F480915A0490915B040097A6
:1003F000B1F022E020934A042FE933E030934E0419
:1004000020934D048331910510F082E190E09093A8
:10041000500480934F0400D085EA91E0C3C08091DE
:100420005704823031F580934A0481EB93E0909336
:100430004E0480934D0480915A0490915B04833262
:10044000910510F082E290E09093500480934F0465
:1004500000D000D029EC31E0EDB7FEB73283218324
:10046000948383830E9486040F900F900F900F90C7
:10047000A1C0833009F0A0C082E080934A04E091DB
:100480005604E23008F098C0F0E0EE0FFF1FE95C80
:10049000FB4F8081918190934E0480934D0400D056
:1004A00082E092E0EDB7FEB7928381830E948604DA
:1004B000E0914D04F0914E04808180934F0410929E
:1004C000500476C08823D1F5809155048530A1F47D
:1004D00083E080934A0400D086E292E0EDB7FEB755
:1004E000928381830E948604809156048F77809343
:1004F00053048093E3005CC0893009F05DC08091B3
:100500005604813009F058C083E080934A0400D03B
:100510008FE392E0EDB7FEB7928381830E94860459
:100520000F900F900E94B901813009F043C084E020
:100530008093510400D083E592E034C0813259F4B5
:10054000809155048031C1F583E080934A0400D046
:1005500083E692E027C0813879F580915504863092
:1005600059F580915604882339F5809157048232D9
:1005700029F582E080934A0483ED93E090934E0442
:1005800080934D0480915A0490915B0483339105CC
:1005900010F082E390E09093500480934F0400D0D9
:1005A00083E792E0EDB7FEB7928381830E948604D1
:1005B0000F900F9081E0089580E0089580E0089505
:1005C0000F931F931091E9001092E9008091E800C9
:1005D00083FF15C00E942C0101E00093E8000E94F7
:1005E000E101882309F0B3C000934A048091EB0035
:1005F00080628093EB0000D08CE892E058C080913C
:100600004A04833091F1843038F4882309F491C08E
:10061000823009F09CC006C08430B9F1853009F001
:1006200096C04CC08091E80082FD14C08091E80023
:1006300080FF8DC000D08DEC92E0EDB7FEB79283C5
:1006400081830E9486040F900F900E946601882388
:1006500009F47DC000D082EA92E0EDB7FEB7928344
:1006600081830E94860484E06EC08091E80086FF4A
:100670006EC08091E8008E7F8093E80085E08093D3
:100680004A0400D080EE92E012C08091E8008B7F97
:1006900009F45DC081E080934A048091EB008062A0
:1006A0008093EB001092E80000D08CE093E0EDB76F
:1006B000FEB7928381830E94860447C08091E80040
:1006C00080FF15C081E080934A048091EB00806236
:1006D0008093EB001092E80000D085E393E0EDB743
:1006E000FEB7928381830E9486040F900F908091C1
:1006F000E300882361F18091E30080588093E30058
:1007000083E0809351048091E30000D000D02DE578
:1007100033E0EDB7FEB73283218390E080589040FC
:10072000948383830E9486040F900F900F900F9004
:100730000EC000D080E793E0EDB7FEB792838183CF
:100740000E94860481E080934A040F900F901093DA
:10075000E9001F910F9108950F931F938FB18F7030
:100760008F3011F4629968C00091E90011E0109394
:10077000E9002FB100D000D0EDB7FEB7319688E97F
:1007800093E0ADB7BEB712969C938E9311972283D8
:1007900013820E9486048091E8000F900F900F90C2
:1007A0000F9080FF47C0629B03C01093F10002C00E
:1007B0001092F1008FB1893F39F18A3F48F4853FAB
:1007C00049F1863F70F1863F09F1873F51F516C028
:1007D0008C3F39F18D3F28F48A3FE1F08B3F09F5DA
:1007E0000AC08D3F21F08E3FE1F481E001C08FEF20
:1007F0008093F10018C01092F1000FC01092F10028
:1008000081E08093F1000DC08FEF01C081E0809303
:10081000F10004C081E08093F1008FEF8093F1003C
:1008200004C01092F1001092F1008091E8008E7FD8
:100830008093E8000093E9001F910F910895909133
:10084000C80095FFFCCF8093CE0080E090E0089533
:100850009091C80097FFFCCF8091CE009C71C1F7AA
:10086000089514BE98E10FB6F8949093600010922A
:1008700060000FBE249A2C9880E885BF85BF10BA0F
:100880002FEF21BBE1E6F0E080831082539A80E4F1
:100890008093C8009093C90086E08093CA0089E1E4
:1008A00090E09093CD008093CC008BE394E0909304
:1008B0005F0480935E04089580E0629980E08F5F1A
:1008C0008436D8F380E0629B80E08F5F8436D8F373
:1008D00008950E9431040E9486000E945C0480E01A
:1008E0000E94960080915104882311F00E940D010E
:1008F000809151048250833010F40E94E002809174
:100900005104843079F70E94AC03ECCFDF93CF938E
:10091000CDB7DEB7FE0135966191719180915E048D
:1009200090915F04AF010E949804CF91DF910895E8
:100930002F923F924F925F926F927F928F929F92EF
:10094000AF92BF92CF92DF92EF92FF920F931F93DD
:10095000DF93CF93CDB7DEB72C970FB6F894DEBFF9
:100960000FBECDBF6C011B018A01FC0117821682EC
:10097000838181FFD1C12E010894411C511CF601D5
:100980009381F10193FD859193FF81911F0188234C
:1009900009F4BEC1853239F493FD859193FF8191AD
:1009A0001F01853229F490E0B6010E94BE06E7CF10
:1009B000EE24FF2420E02032B0F48B3269F08C3238
:1009C00028F4803251F0833271F40BC08D3239F04B
:1009D000803349F421602CC02260246029C0286043
:1009E00027C0206125C027FD2CC0382F30533A3056
:1009F00098F426FF08C08E2D880FE82EEE0CEE0C22
:100A0000E80EE30E15C08F2D880FF82EFF0CFF0C9B
:100A1000F80EF30E20620CC08E3221F426FD78C150
:100A2000206406C08C3611F4206802C0883649F470
:100A3000F10193FD859193FF81911F01882309F0B6
:100A4000BACF982F9554933018F09052933028F4E1
:100A50000C5F1F4FFFE3F9830DC0833631F08337FE
:100A600071F0833509F060C022C0F801808189836C
:100A70000E5F1F4F420171E0A72EB12C16C062E03D
:100A8000662E712C600E711EF8018080918026FF09
:100A900003C06E2D70E002C06FEF7FEFC4012C87A2
:100AA0000E94B3065C0183012C852F7717C052E0AA
:100AB000652E712C600E711EF8018080918026FFDA
:100AC00003C06E2D70E002C06FEF7FEFC4012C8772
:100AD0000E94A8065C012C852068830123FD20C0AC
:100AE00008C080E290E0B6012C870E94BE06FA940E
:100AF0002C858F2D90E0A816B90698F311C0F4014B
:100B000027FD859127FF81914F0190E0B6012C8749
:100B10000E94BE062C85F110FA940894A108B10831
:100B2000A114B10461F7F1C0843611F0893649F59A
:100B300027FF08C0F80160817181828193810C5F79
:100B40001F4F09C0F80160817181882777FD80956A
:100B5000982F0E5F1F4F4FE6B42EB22297FF09C0A9
:100B600090958095709561957F4F8F4F9F4FF0E8DE
:100B7000BF2AA2012AE030E00E94EA06782E74180B
:100B800045C0853731F43FEEB32EB2222AE030E083
:100B900025C099EFB92EB2228F36C1F0803720F4EC
:100BA000883509F0B5C00DC0803721F0883709F0CD
:100BB000AFC002C020E1B22AB4FE0BC084E0B82A64
:100BC00008C0B4FE09C0E6E0BE2A06C028E030E056
:100BD00005C020E130E002C020E132E0B7FE08C0ED
:100BE000F80160817181828193810C5F1F4F07C082
:100BF000F8016081718180E090E00E5F1F4FA201DB
:100C00000E94EA06782E7418FFE7BF22B6FE0BC0DA
:100C10002EEFB2227E1438F4B4FE07C0B2FC05C039
:100C20008FEEB82202C0A72C01C0AE2C8B2D90E015
:100C3000B4FE0DC0FE01E70DF11D2081203319F433
:100C4000E9EEBE2209C0A394B2FE06C004C08678B5
:100C50009070009709F0A3948B2C9924B3FC14C0D6
:100C6000B0FE0FC0AF1428F4E72CEF0CEA18AF2C3D
:100C700008C0E72C06C080E290E0B6010E94BE06E4
:100C8000A394AF14C0F304C0AF1410F4FA1801C059
:100C9000FF2484FE0FC080E390E0B6010E94BE06F0
:100CA00082FE1FC081FE03C088E590E010C088E787
:100CB00090E00DC0C40186789070009791F081FC9F
:100CC00002C080E201C08BE2B7FC8DE290E0B60189
:100CD0000E94BE0606C080E390E0B6010E94BE06F8
:100CE000EA947E14C0F37A94F201E70DF11D80813D
:100CF00090E0B6010E94BE067720A9F706C080E208
:100D000090E0B6010E94BE06FA94FF20C1F737CEEC
:100D1000F6012681378102C02FEF3FEFC9012C96E3
:100D20000FB6F894DEBF0FBECDBFCF91DF911F91FC
:100D30000F91FF90EF90DF90CF90BF90AF909F907A
:100D40008F907F906F905F904F903F902F9008957D
:100D5000FC010590615070400110D8F78095909586
:100D60008E0F9F1F0895FC0161507040019001108B
:100D7000D8F7809590958E0F9F1F08950F931F931E
:100D8000CF93DF938C01EB018B8181FF1BC082FF2E
:100D90000DC02E813F818C819D812817390764F415
:100DA000E881F9810193F983E88306C0E885F98534
:100DB000802F0995009731F48E819F8101969F8342
:100DC0008E8302C00FEF1FEFC801DF91CF911F91FB
:100DD0000F910895FA01AA27283051F1203181F1AD
:100DE000E8946F936E7F6E5F7F4F8F4F9F4FAF4F33
:100DF000B1E03ED0B4E03CD0670F781F891F9A1F46
:100E0000A11D680F791F8A1F911DA11D6A0F711DF9
:100E1000811D911DA11D20D009F468943F912AE005
:100E2000269F11243019305D3193DEF6CF010895ED
:100E3000462F4770405D4193B3E00FD0C9F7F6CF1E
:100E4000462F4F70405D4A3318F0495D31FD4052E6
:100E5000419302D0A9F7EACFB4E0A695979587957C
:100E600077956795BA95C9F700976105710508955B
:100E70009B01AC010A2E0694579547953795279507
:100E8000BA95C9F7620F731F841F951FA01D08959F
:040E9000F894FFCF04
:100E94000A0D4D616B726F20696E697469616C69CA
:100EA4007369657274000A0D41747461636820612A
:100EB4006E676566616E67656E000A0D41747461E4
:100EC4006368206265656E646574000A0D45503080
:100ED400206572666F6C67726569636820616B7404
:100EE400697669657274000A0D455030204E494395
:100EF400485420616B74697669657274000A0D55F3
:100F040053422D52657365742065726B616E6E7405
:100F1400000A0D534554555020656D7066616E6727
:100F2400656E3A002025303278000A0D47657365F6
:100F34006465743A000A0D526571756573742069AD
:100F4400733A204765742044657669636520446577
:100F54007363726970746F72000A0D5265717565FE
:100F640073742069733A2047657420436F6E666911
:100F74006775726174696F6E20446573637269701A
:100F8400746F7220776974682025642062797465AF
:100F940073000A0D526571756573742069733A2084
:100FA40047657420537472696E6720446573637275
:100FB4006970746F72000A0D5265717565737420DF
:100FC40069733A2053657420416472657373000A2F
:100FD4000D73657420636F6E6669677572617469F9
:100FE4006F6E000A0D45503120616B746976696536
:100FF4007274000A0D7365742069646C65207261F3
:101004007465000A0D676574204849442072657050
:101014006F72742072657175657374000A0D556E74
:1010240062656B616E6E746572205265717565736D
:1010340074000A0D53746174757377656C63687317
:10104400656C20766F6E20444154415F494E206E9A
:10105400616368205354415455535F52000A0D5341
:10106400656E646570756666657220667265690092
:101074000A0D53746174757377656C636873656C7A
:1010840020766F6E20444154415F4F5554206E6169
:101094006368205354415455535F57000A0D5374E9
:1010A4006174757377656C636873656C20766F6EB5
:1010B400205354415455535F52206E61636820534A
:1010C40045545550000A0D53746174757377656304
:1010D4006873656C20766F6E205354415455535F8A
:1010E40057206E616368205345545550000A0D4ED5
:1010F40065756520416472657373653A20256400E3
:101104000A0D53746174757377656C636873656CE9
:1011140020766F6E2048414C54454E44206E6163E6
:1011240068205345545550000A0D2530327800127A
:1011340001100100000040D9154C0A000100010013
:101144000109022200010100A03209040000010388
:101154000102000921110100012232000705810367
:1011640003000A05010902A1010901A100050919E9
:101174000129021500250195027501810295017569
:101184000681030501093009311581257F7508950C
:10119400028106C0C00403090400003A0348006544
:1011A400006900640069002C002000640069006587
:1011B400002000530055005000450052004D0041EE
:1011C4000055005300000005040B04000000030058
:0A11D4000000001F042804000000C2
:00000001FF
